:100000000C942A000C94E00C0C94170D0C944E0DDB
:100010000C9447000C94D3080C9447000C944700B0
:100020000C9447000C9447000C9447000C94120A5F
:100030000C9447000C9447000C9447000C94470024
:100040000C9441120C9447000C9447000C94470008
:100050000C94470011241FBECFE5D4E0DEBFCDBF16
:1000600011E0A0E6B0E0E4E1F1E402C005900D92F9
:10007000A03AB107D9F711E0A0EAB1E001C01D92A2
:10008000A83CB107E1F70E94241D0C9488200C9431
:100090000000EF92FF920F931F937B018C0120E0F1
:1000A00030E040E05FE40E94F50388238CF0C80153
:1000B000B70120E030E040E05FE40E94C1010E940F
:1000C00055049B01AC01205030404040504806C0D0
:1000D000C801B7010E9455049B01AC01B901CA01D6
:1000E0001F910F91FF90EF900895A0E0B0E0EBE733
:1000F000F0E00C945120DC012B01FA019C9192302C
:1001000008F439C1EB018881823008F433C194309E
:1001100069F4843009F02FC111969C91119789815F
:10012000981709F428C1A7E7B0E025C1843009F485
:1001300021C18230A9F4923009F01DC19A01AD01AC
:1001400088E0EA010990AE01E90109929E0181501F
:10015000C1F7E201898111969C918923818308C1AD
:10016000923009F407C112962D903C901397EB0141
:100170008A819B811496AD90BD90CD90DC901797AD
:10018000EC80FD800E811F819101281B390BB90184
:1001900037FF04C066277727621B730B6032710537
:1001A0000CF061C0121613066CF537014801062EDB
:1001B00004C096948794779467940A94D2F721E0C8
:1001C00030E040E050E004C0220F331F441F551FB1
:1001D0006A95D2F721503040404050402E213F21B7
:1001E00040235123211531054105510521F021E01E
:1001F00030E040E050E079018A01E628F72808293C
:1002000019293CC0232BD1F1260E371E350146019A
:10021000062E04C096948794779467940A94D2F734
:1002200021E030E040E050E004C0220F331F441FC3
:10023000551F6A95D2F721503040404050402A2146
:100240003B214C215D21211531054105510521F04E
:1002500021E030E040E050E059016A01A628B728CB
:10026000C828D9280BC0821593052CF01C01AA249C
:10027000BB24650103C0EE24FF24870111969C91E5
:10028000D20111968C91981709F445C0992339F041
:10029000A80197012A193B094C095D0906C0A6016E
:1002A00095012E193F09400B510B57FD08C01182D3
:1002B0003382228224833583468357831DC081E0A5
:1002C00081833382228288279927DC01821B930B4A
:1002D000A40BB50B84839583A683B7830DC0220F2F
:1002E000331F441F551F24833583468357838281E0
:1002F000938101979383828324813581468157813D
:10030000DA01C9010197A109B1098F5F9F4FAF4F72
:10031000BF4328F30BC0918333822282EA0CFB1C7B
:100320000C1D1D1DE482F5820683178383E0808304
:10033000248135814681578157FF1AC0C901AA27F8
:1003400097FDA095BA2F81709070A070B0705695EF
:10035000479537952795822B932BA42BB52B848318
:100360009583A683B7838281938101969383828349
:10037000DF0101C0D201CD01CDB7DEB7E2E10C94BF
:100380006D20A0E2B0E0E7ECF1E00C945D20698321
:100390007A838B839C832D833E834F835887E9E048
:1003A000EE2EF12CEC0EFD1ECE010196B7010E943F
:1003B00046068E010F5E1F4FCE010596B8010E94C2
:1003C00046068A8991E089278A8BC701B801AE0168
:1003D000475E5F4F0E9475000E947105A096E6E09F
:1003E0000C947920A0E2B0E0E8EFF1E00C945D20FD
:1003F00069837A838B839C832D833E834F835887C5
:10040000F9E0EF2EF12CEC0EFD1ECE010196B701A6
:100410000E9446068E010F5E1F4FCE010596B80161
:100420000E944606C701B801AE01475E5F4F0E94B9
:1004300075000E947105A096E6E00C947920A0E278
:10044000B0E0E5E2F2E00C94512069837A838B837B
:100450009C832D833E834F835887CE010196BE0136
:10046000675F7F4F0E944606CE010596BE016F5E14
:100470007F4F0E9446069985923088F089898230A4
:10048000C8F0943019F4823051F404C0843029F457
:10049000923081F487E790E0C6C0923049F420E0C2
:1004A0009A858A89981321E02A87CE010996BBC0D4
:1004B000823049F420E09A858A89981321E02A8BBA
:1004C000CE014196B0C02D843E844F8458886D88FB
:1004D0007E888F88988CEE24FF248701AA24BB2471
:1004E000650140E050E060E070E0E0E0F0E0C10174
:1004F00081709070892BE9F0E60CF71C081D191D1E
:100500009A01AB012A0D3B1D4C1D5D1D80E090E062
:10051000A0E0B0E0E614F7040805190520F481E036
:1005200090E0A0E0B0E0BA01A901480F591F6A1F8E
:100530007B1FAA0CBB1CCC1CDD1C97FE08C081E0F5
:1005400090E0A0E0B0E0A82AB92ACA2ADB2A3196B6
:10055000E032F10549F0660C771C881C991C569412
:10056000479437942794C3CFFA85EA892B893C892D
:100570008B859C85280F391F2E5F3F4F17C0CA01FE
:1005800081709070892B61F016950795F794E79428
:1005900080E090E0A0E0B0E8E82AF92A0A2B1B2BC3
:1005A00076956795579547952F5F3F4F77FDE7CF36
:1005B0000CC0440F551F661F771F17FD4160EE0CDE
:1005C000FF1C001F111F21503040403090E05907A0
:1005D00090E0690790E4790760F32B8F3C8FDB0193
:1005E000CA018F779070A070B07080349105A1051A
:1005F000B10561F447FD0AC0E114F10401051105DC
:1006000029F0405C5F4F6F4F7F4F40781A8EFE1786
:1006100011F081E08A8F4D8F5E8F6F8F78A383E01A
:10062000898FCE0149960E947105A096E2E10C9453
:100630006D20A8E1B0E0EFE1F3E00C94592069836C
:100640007A838B839C832D833E834F835887B9E0C5
:10065000EB2EF12CEC0EFD1ECE010196B7010E948F
:1006600046068E010F5E1F4FCE010596B8010E940F
:1006700046062985223008F47EC03989323010F4CC
:10068000B8017CC08A859A8989278A87243011F02D
:10069000223031F4231709F06EC067E770E06EC0B6
:1006A000343039F41D861E861F86188A1C861B86E8
:1006B00004C0323021F484E08987B7015FC02B8504
:1006C0003C858B899C89281B390B3C872B87ED84C3
:1006D000FE840F851889AD88BE88CF88D88CEA142F
:1006E000FB040C051D0540F4EE0CFF1C001F111F40
:1006F000215030403C872B8720E030E040E050E044
:1007000080E090E0A0E0B0E460E070E0EA14FB0478
:100710000C051D0540F0282B392B4A2B5B2BEA18C2
:10072000FB080C091D09B695A79597958795EE0CC2
:10073000FF1C001F111F6F5F7F4F6F31710531F775
:10074000DA01C9018F779070A070B0708034910584
:10075000A105B10561F427FD0AC0E114F10401050A
:10076000110529F0205C3F4F4F4F5F4F20782D87B8
:100770003E874F87588BBE01675F7F4FCB010E943A
:1007800071056896EAE00C947520A8E1B0E0EBEC06
:10079000F3E00C945D2069837A838B839C832D83A3
:1007A0003E834F83588789E0E82EF12CEC0EFD1E26
:1007B000CE010196B7010E9446068E010F5E1F4FC3
:1007C000CE010596B8010E9446068985823040F028
:1007D0008989823028F0C701B8010E94BE0601C095
:1007E0008FEF6896E6E00C947920A8E1B0E0EBEF9B
:1007F000F3E00C945D2069837A838B839C832D8343
:100800003E834F83588789E0E82EF12CEC0EFD1EC5
:10081000CE010196B7010E9446068E010F5E1F4F62
:10082000CE010596B8010E9446068985823040F0C7
:100830008989823028F0C701B8010E94BE0601C034
:100840008FEF6896E6E00C947920A8E1B0E0EBE247
:10085000F4E00C945D2069837A838B839C832D83E1
:100860003E834F83588789E0E82EF12CEC0EFD1E65
:10087000CE010196B7010E9446068E010F5E1F4F02
:10088000CE010596B8010E9446068985823040F067
:100890008989823028F0C701B8010E94BE0601C0D4
:1008A00081E06896E6E00C947920ACE0B0E0EBE5FE
:1008B000F4E00C94612069837A838B839C83CE015E
:1008C0000196BE016B5F7F4F0E9446068D8182308C
:1008D00061F1823050F1843021F48E81882351F10E
:1008E0002EC02F81388537FD20C06E812F31310514
:1008F0001CF06623F9F023C08EE190E0821B930B7D
:1009000029853A854B855C8504C056954795379572
:1009100027958A95D2F76623B1F05095409530958A
:1009200021953F4F4F4F5F4F0EC020E030E040E039
:1009300050E009C02FEF3FEF4FEF5FE704C020E02A
:1009400030E040E050E8B901CA012C96E2E00C9496
:100950007D20A8E0B0E0EFEAF4E00C9459207B01A0
:100960008C01611571058105910519F482E0898377
:1009700060C083E089838EE1C82ED12CDC82CB82DB
:10098000ED82FE820F831887C801B7010E942205FD
:10099000FC013197F7FF3BC0222733272E1B3F0B6B
:1009A00057016801022E04C0D694C794B794A79447
:1009B0000A94D2F740E050E060E070E081E090E01F
:1009C000A0E0B0E004C0880F991FAA1FBB1F2A95A2
:1009D000D2F70197A109B1098E219F21A023B1234C
:1009E0000097A105B10521F041E050E060E070E022
:1009F0004A295B296C297D294D835E836F83788723
:100A00008EE190E08E1B9F0B9C838B8312C03097EE
:100A100081F00E2E04C0EE0CFF1C001F111F0A9463
:100A2000D2F7ED82FE820F831887CE1ADF0ADC82AE
:100A3000CB821A82CE0101960E9471052896EAE0C7
:100A40000C947520EF92FF920F931F937B018C0102
:100A500080E0E81680E0F80681E0080780E01807EB
:100A600088F48FEFE816F1040105110531F028F044
:100A700088E090E0A0E0B0E017C080E090E0A0E067
:100A8000B0E012C080E0E81680E0F80680E00807D9
:100A900081E0180728F088E190E0A0E0B0E004C011
:100AA00080E190E0A0E0B0E020E230E040E050E003
:100AB000281B390B4A0B5B0B04C016950795F7945E
:100AC000E7948A95D2F7F701E158FF4F8081281B00
:100AD000310941095109C9011F910F91FF90EF9010
:100AE0000895DF92EF92FF920F931F93FC01E48031
:100AF000F58006811781D1808081823048F480E0C2
:100B000090E0A0E1B0E0E82AF92A0A2B1B2BA5C04F
:100B1000843009F49FC0823021F4EE24FF24870141
:100B200005C0E114F1040105110519F4E0E0F0E05D
:100B300096C0628173819FEF623879070CF05BC0C9
:100B400022E83FEF261B370B2A3131052CF020E03D
:100B500030E040E050E02AC0B801A701022E04C0F6
:100B600076956795579547950A94D2F781E090E07E
:100B7000A0E0B0E004C0880F991FAA1FBB1F2A95F0
:100B8000D2F70197A109B1098E219F21A023B1239A
:100B90000097A105B10521F081E090E0A0E0B0E070
:100BA0009A01AB01282B392B4A2B5B2BDA01C901A7
:100BB0008F779070A070B07080349105A105B10559
:100BC00039F427FF09C0205C3F4F4F4F5F4F04C0EF
:100BD000215C3F4F4F4F5F4FE0E0F0E02030A0E05E
:100BE0003A07A0E04A07A0E45A0710F0E1E0F0E07D
:100BF00079018A0127C06038710564F5FB01E1586D
:100C0000FF4FD801C7018F779070A070B07080340B
:100C10009105A105B10539F4E7FE0DC080E490E02F
:100C2000A0E0B0E004C08FE390E0A0E0B0E0E80E08
:100C3000F91E0A1F1B1F17FF05C016950795F7948D
:100C4000E794319687E016950795F794E7948A958F
:100C5000D1F705C0EE24FF248701EFEFF0E06E2FFF
:100C6000679566276795902F9F77D794DD24D79453
:100C70008E2F8695492F462B582F5D29B701CA0123
:100C80001F910F91FF90EF90DF900895FC01DB0121
:100C9000408151812281622F6F7770E0221F2227CD
:100CA000221F9381892F880F822B282F30E0991FD4
:100CB0009927991F11969C93119721153105A9F534
:100CC000411551056105710511F482E037C082E8D4
:100CD0009FEF13969C938E9312979A01AB0167E056
:100CE000220F331F441F551F6A95D1F783E08C9361
:100CF0000DC0220F331F441F551F12968D919C91DA
:100D00001397019713969C938E931297203080E04F
:100D1000380780E0480780E4580758F314962D936D
:100D20003D934D935C93179708952F3F310579F4C8
:100D3000411551056105710519F484E08C930895FE
:100D400064FF03C081E08C9312C01C9210C02F5727
:100D5000304013963C932E93129783E08C9387E058
:100D6000440F551F661F771F8A95D1F7706414963C
:100D70004D935D936D937C93179708951F93DC01BA
:100D8000FB019C91923008F447C08081823008F4C6
:100D900043C0943051F411961C91843099F58181AF
:100DA000682F70E0611B71093FC0843021F09230E0
:100DB00031F48230B9F18181882389F12DC01196F7
:100DC0001C9111978230F1F081811817D9F4129695
:100DD0002D913C911397828193818217930794F010
:100DE00028173907BCF014968D919D910D90BC91F8
:100DF000A02D2481358146815781281739074A075C
:100E00005B0718F4112341F00AC082179307A40767
:100E1000B50740F4112319F061E070E005C06FEFF1
:100E20007FEF02C060E070E0CB011F910895DF9377
:100E3000CF93CDB7DEB783E061E041E00E94910D32
:100E400083E060E040E00E94910D83E060E041E0DB
:100E50000E947D0EAAE2B0E0EAE2F0E080818860C4
:100E60008C93AAE2B0E0EAE2F0E0808180618C93AA
:100E7000E0E4F0E086E88083AAE2B0E0EAE2F0E0B5
:100E800080818B7F8C93AAE2B0E0EAE2F0E080817F
:100E90008B7F8C93E9E2F0E087E68083CF91DF914E
:100EA0000895DF93CF930F92CDB7DEB78983ECE23D
:100EB000F0E089818083EBE2F0E080818295869585
:100EC00086958370882F90E081709070009799F3D9
:100ED0000F90CF91DF910895DF93CF93CDB7DEB719
:100EE00060970FB6F894DEBF0FBECDBF1F8675C0EA
:100EF00080E090E0A0E7B2E48B879C87AD87BE8757
:100F00006B857C858D859E8520E030E04AE753E443
:100F10000E941F02DC01CB018F839887A987BA87C3
:100F20006F81788589859A8520E030E040E85FE32D
:100F30000E94250488232CF481E090E09E838D8319
:100F40003FC06F81788589859A8520E03FEF4FE724
:100F500057E40E94C50318164CF56B857C858D857A
:100F60009E8520E030E040E251E40E941F02DC0157
:100F7000CB01BC01CD010E944900DC01CB019E8365
:100F80008D830FC089E190E09C838B838B819C8152
:100F90000197F1F79C838B838D819E8101979E83BE
:100FA0008D838D819E81009769F714C06F8178854C
:100FB00089859A850E944900DC01CB019E838D833F
:100FC0008D819E819A83898389819A810197F1F726
:100FD0009A8389838F858F5F8F87EBE2F0E0808132
:100FE000882324F08F85843108F482CF8F85843163
:100FF00031F0ECE2F0E08081888B888900C0609657
:101000000FB6F894DEBF0FBECDBFCF91DF9108952C
:10101000DF93CF930F92CDB7DEB781E08983A5E44C
:10102000B0E0E5E4F0E080818F7B8C93A5E4B0E054
:10103000E5E4F0E08081877F8C93A9E5B0E0E9E505
:10104000F0E0808180648C9389810F90CF91DF9153
:101050000895DF93CF93CDB7DEB72D970FB6F894F1
:10106000DEBF0FBECDBF6A877B878C879D8781E0FF
:10107000898780E490E0A0E0B0E08D839E83AF8319
:10108000B8878A859B85AC85BD8528E833E140E03B
:1010900050E0BC01CD010E94F51FDC01CB012D8188
:1010A0003E814F815885BC01CD010E941420DA0198
:1010B000C90189839A83AB83BC8389819A81AB817F
:1010C000BC81892F9A2FAB2FBB278093BF019093B0
:1010D000C001A093C101B093C20189818195809321
:1010E000BE0189819A81AB81BC819070A070B07083
:1010F0000097A105B105C1F0E4E4F0E08091BE01E4
:1011000080838091BF019091C001A091C101B091F5
:10111000C2010196A11DB11D8093BF019093C00132
:10112000A093C101B093C20189852D960FB6F894A2
:10113000DEBF0FBECDBFCF91DF910895DF93CF9378
:101140000F92CDB7DEB781E08983A5E4B0E0E5E496
:10115000F0E0808185608C9389810F90CF91DF9141
:101160000895DF93CF930F92CDB7DEB781E08983E7
:10117000A5E4B0E0E5E4F0E080818E7F8C93A5E407
:10118000B0E0E5E4F0E080818D7F8C93A5E4B0E0F1
:10119000E5E4F0E080818B7F8C93198289810F9048
:1011A000CF91DF9108951F920F920FB60F921124E5
:1011B0002F933F934F935F936F937F938F939F935F
:1011C000AF93BF93EF93FF93DF93CF93CDB7DEB78A
:1011D0008091A2019091A301A091A401B091A501D9
:1011E0000196A11DB11D8093A2019093A301A0932C
:1011F000A401B093A5012091A2013091A3014091D7
:10120000A4015091A5018091BF019091C001A091CE
:10121000C101B091C201281739074A075B0791F451
:10122000E091A001F091A1010995E4E4F0E0809142
:10123000BE0180831092A2011092A3011092A4011A
:101240001092A501CF91DF91FF91EF91BF91AF91E6
:101250009F918F917F916F915F914F913F912F91CE
:101260000F900FBE0F901F901895DF93CF9300D073
:10127000CDB7DEB79A83898389819A819093A10142
:101280008093A0010F900F90CF91DF910895DF938D
:10129000CF930F92CDB7DEB781E08983A3E5B0E0AD
:1012A000E3E5F0E080818F7B8C93A3E5B0E0E3E59C
:1012B000F0E08081877F8C93A9E5B0E0E9E5F0E07C
:1012C000808181608C9389810F90CF91DF91089507
:1012D000DF93CF93CDB7DEB72D970FB6F894DEBF6F
:1012E0000FBECDBF6A877B878C879D8781E089870A
:1012F00080E490E0A0E0B0E08D839E83AF83B88768
:101300008A859B85AC85BD8528EE33E040E050E0C2
:10131000BC01CD010E94F51FDC01CB012D813E8176
:101320004F815885BC01CD010E941420DA01C9010A
:1013300089839A83AB83BC8389819A81AB81BC8189
:10134000892F9A2FAB2FBB278093C4019093C5019F
:10135000A093C601B093C701898181958093C30191
:1013600089819A81AB81BC819070A070B070009728
:10137000A105B105C1F0E2E5F0E08091C3018083F1
:101380008091C4019091C501A091C601B091C7019F
:101390000196A11DB11D8093C4019093C501A09336
:1013A000C601B093C70189852D960FB6F894DEBFAC
:1013B0000FBECDBFCF91DF910895DF93CF930F92F2
:1013C000CDB7DEB781E08983A3E5B0E0E3E5F0E0E7
:1013D000808185608C9389810F90CF91DF910895F2
:1013E000DF93CF930F92CDB7DEB781E08983A3E57A
:1013F000B0E0E3E5F0E080818E7F8C93A3E5B0E080
:10140000E3E5F0E080818D7F8C93A3E5B0E0E3E538
:10141000F0E080818B7F8C93198289810F90CF912E
:10142000DF9108951F920F920FB60F9211242F9300
:101430003F934F935F936F937F938F939F93AF935C
:10144000BF93EF93FF93DF93CF93CDB7DEB7E091D8
:10145000A601F091A7010995CF91DF91FF91EF913E
:10146000BF91AF919F918F917F916F915F914F91BC
:101470003F912F910F900FBE0F901F901895DF9303
:10148000CF9300D0CDB7DEB79A83898389819A81C3
:101490009093A7018093A6010F900F90CF91DF91B9
:1014A0000895DF93CF93CDB7DEB7F89480E0CF9166
:1014B000DF910895DF93CF93CDB7DEB7789480E0C6
:1014C000CF91DF910895DF93CF93CDB7DEB7F89436
:1014D00080E0CF91DF910895DF93CF93CDB7DEB752
:1014E00028970FB6F894DEBF0FBECDBF9C838B83C9
:1014F00081E08A838B819C81009709F4D4C1198291
:10150000CBC18981282F30E0C901880F991F280F8E
:10151000391F8B819C81FC01E20FF31F828188239C
:1015200089F08981282F30E0C901880F991F280F81
:10153000391F8B819C81FC01E20FF31F8281813076
:1015400009F030C1A5E5B0E0E5E5F0E08081482F85
:101550008981282F30E0C901880F991F280F391F72
:101560008B819C81FC01E20FF31F8281882F90E028
:101570009C01220F331F83E090E002C0880F991F67
:101580002A95E2F7809584238C938981282F30E077
:10159000C901880F991F280F391F8B819C81FC017D
:1015A000E20FF31F8081282F30E038872F838F814F
:1015B00098858334910509F462C02F8138852434DD
:1015C00031055CF48F8198858032910571F02F810F
:1015D00038852134310539F077C08F81988581367F
:1015E000910541F171C01A8271C0A5E5B0E0E5E551
:1015F000F0E08081482F8981282F30E0C901880FD1
:10160000991F280F391F8B819C81FC01E20FF31F6A
:101610008281882F90E09C01220F331F81E090E0AF
:10162000022E02C0880F991F0A94E2F7842B8C9334
:101630001A824CC0A5E5B0E0E5E5F0E08081482FD6
:101640008981282F30E0C901880F991F280F391F81
:101650008B819C81FC01E20FF31F8281882F90E037
:101660009C01220F331F82E090E0022E02C0880FFF
:10167000991F0A94E2F7842B8C931A8227C0A5E560
:10168000B0E0E5E5F0E08081482F8981282F30E047
:10169000C901880F991F280F391F8B819C81FC017C
:1016A000E20FF31F8281882F90E09C01220F331FED
:1016B00083E090E0022E02C0880F991F0A94E2F79F
:1016C000842B8C931A8202C082E08A838981282F1E
:1016D00030E0C901880F991F280F391F8B819C8129
:1016E000FC01E20FF31F8181853221F5ABE5B0E00B
:1016F000EBE5F0E08081482F8981282F30E0C90197
:10170000880F991F280F391F8B819C81FC01E20FE4
:10171000F31F8281882F90E09C012A5F3F4F81E078
:1017200090E0022E02C0880F991F0A94E2F7842BE2
:101730008C93AFC08981282F30E0C901880F991F91
:10174000280F391F8B819C81FC01E20FF31F8181DF
:101750008A3029F5ABE5B0E0EBE5F0E08081482F79
:101760008981282F30E0C901880F991F280F391F60
:101770008B819C81FC01E20FF31F8281882F90E016
:101780009C012A5F3F4F81E090E0022E02C0880F4B
:10179000991F0A94E2F7809584238C937AC082E0A3
:1017A0008A8377C08981282F30E0C901880F991F6B
:1017B000280F391F8B819C81FC01E20FF31F82816E
:1017C000823009F064C0A4E5B0E0E4E5F0E0808197
:1017D0008F7B8C938981282F30E0C901880F991F56
:1017E000280F391F8B819C81FC01E20FF31F808140
:1017F000282F30E03E832D838D819E818334910597
:1018000039F02D813E812136310559F41A820BC001
:10181000A4E5B0E0E4E5F0E0808180648C931A8276
:1018200002C082E08A838981282F30E0C901880FB5
:10183000991F280F391F8B819C81FC01E20FF31F38
:101840008181853241F4ABE5B0E0EBE5F0E08081E9
:1018500080628C931AC08981282F30E0C901880FDB
:10186000991F280F391F8B819C81FC01E20FF31F08
:1018700081818A3041F4ABE5B0E0EBE5F0E08081B6
:101880008F7D8C9302C082E08A831A8202C082E03C
:101890008A8389818F5F898390917F0189818917EC
:1018A00008F42FCE02C083E08A838A8128960FB67F
:1018B000F894DEBF0FBECDBFCF91DF910895DF93C7
:1018C000CF9300D000D0CDB7DEB79B838A836C83E3
:1018D00081E0898389810F900F900F900F90CF91B5
:1018E000DF910895DF93CF9300D00F92CDB7DEB78D
:1018F0009B838A8381E0898389810F900F900F9069
:10190000CF91DF910895DF93CF9300D00F92CDB7A1
:10191000DEB79B838A8381E0898389810F900F9052
:101920000F90CF91DF910895DF93CF93CDB7DEB7BE
:1019300027970FB6F894DEBF0FBECDBF9B838A8377
:101940007D836C835F834E8381E089838A819B8161
:10195000009751F18C819D81009731F1EA81FB81E3
:1019600082818330F0F4EA81FB818281882F90E0CC
:10197000880F991FFC01E855FE4F8C819D81918352
:101980008083EA81FB818281882F90E0880F991FF4
:10199000FC01E255FE4F8E819F81918380831982E5
:1019A00005C082E0898302C083E08983898127960C
:1019B0000FB6F894DEBF0FBECDBFCF91DF91089573
:1019C0001F920F920FB60F9211242F933F934F93B4
:1019D0005F936F937F938F939F93AF93BF93EF9397
:1019E000FF93DF93CF93CDB7DEB78091A80190919D
:1019F000A901009749F0E091A801F091A901809117
:101A0000AE019091AF010995CF91DF91FF91EF91D8
:101A1000BF91AF919F918F917F916F915F914F9106
:101A20003F912F910F900FBE0F901F9018951F920E
:101A30000F920FB60F9211242F933F934F935F9302
:101A40006F937F938F939F93AF93BF93EF93FF9386
:101A5000DF93CF93CDB7DEB78091AA019091AB0110
:101A6000009749F0E091AA01F091AB018091B0019B
:101A70009091B1010995CF91DF91FF91EF91BF91C5
:101A8000AF919F918F917F916F915F914F913F9116
:101A90002F910F900FBE0F901F9018951F920F92CD
:101AA0000FB60F9211242F933F934F935F936F9331
:101AB0007F938F939F93AF93BF93EF93FF93DF93A6
:101AC000CF93CDB7DEB78091AC019091AD01009777
:101AD00049F0E091AC01F091AD018091B20190919B
:101AE000B3010995CF91DF91FF91EF91BF91AF9134
:101AF0009F918F917F916F915F914F913F912F9126
:101B00000F900FBE0F901F901895DF93CF930F92F9
:101B1000CDB7DEB781E0898389810F90CF91DF91C6
:101B20000895DF93CF9300D000D000D0CDB7DEB7BB
:101B30008A836B834C8381E089838A81843008F0B7
:101B4000D0C08B81883008F0CCC08C81823008F006
:101B5000C8C08A81282F30E03E832D836D817E812D
:101B60006130710509F441C08D819E8182309105FB
:101B700034F42D813E812115310571F0B0C06D81A5
:101B80007E816230710509F459C08D819E81833058
:101B9000910509F47CC0A3C0AAE3B0E0EAE3F0E059
:101BA0008081482F8B81282F30E081E090E002C0B7
:101BB000880F991F2A95E2F7809584238C93AAE3D6
:101BC000B0E0EAE3F0E08081482F8C81282F30E0FC
:101BD0008B81882F90E0B90102C0660F771F8A952C
:101BE000E2F7CB01842B8C937AC0A7E3B0E0E7E364
:101BF000F0E08081482F8B81282F30E081E090E059
:101C000002C0880F991F2A95E2F7809584238C9350
:101C1000A7E3B0E0E7E3F0E08081482F8C81282F34
:101C200030E08B81882F90E0B90102C0660F771FEA
:101C30008A95E2F7CB01842B8C9351C0A4E3B0E0EA
:101C4000E4E3F0E08081482F8B81282F30E081E0B1
:101C500090E002C0880F991F2A95E2F780958423AF
:101C60008C93A4E3B0E0E4E3F0E08081482F8C8122
:101C7000282F30E08B81882F90E0B90102C0660FD9
:101C8000771F8A95E2F7CB01842B8C9328C0A1E3C0
:101C9000B0E0E1E3F0E08081482F8B81282F30E035
:101CA00081E090E002C0880F991F2A95E2F78095A5
:101CB00084238C93A1E3B0E0E1E3F0E08081482F3E
:101CC0008C81282F30E08B81882F90E0B90102C0F1
:101CD000660F771F8A95E2F7CB01842B8C931982CC
:101CE00002C082E08983898126960FB6F894DEBF10
:101CF0000FBECDBFCF91DF910895DF93CF9300D07A
:101D000000D000D0CDB7DEB78A836B834C8381E0EF
:101D100089838A81843008F0D3C08B81883008F0B1
:101D2000CFC08C81823020F08C81823008F0C8C016
:101D30008A81282F30E03E832D836D817E81613042
:101D4000710509F441C08D819E818230910534F482
:101D50002D813E812115310571F0B0C06D817E81EC
:101D60006230710509F459C08D819E8183309105DF
:101D700009F47CC0A3C0ABE3B0E0EBE3F0E080810A
:101D8000482F8B81282F30E081E090E002C0880F3F
:101D9000991F2A95E2F7809584238C93ABE3B0E0FA
:101DA000EBE3F0E08081482F8C81282F30E08B819D
:101DB000882F90E0B90102C0660F771F8A95E2F77D
:101DC000CB01842B8C937AC0A8E3B0E0E8E3F0E089
:101DD0008081482F8B81282F30E081E090E002C085
:101DE000880F991F2A95E2F7809584238C93A8E3A6
:101DF000B0E0E8E3F0E08081482F8C81282F30E0CC
:101E00008B81882F90E0B90102C0660F771F8A95F9
:101E1000E2F7CB01842B8C9351C0A5E3B0E0E5E35E
:101E2000F0E08081482F8B81282F30E081E090E026
:101E300002C0880F991F2A95E2F7809584238C931E
:101E4000A5E3B0E0E5E3F0E08081482F8C81282F06
:101E500030E08B81882F90E0B90102C0660F771FB8
:101E60008A95E2F7CB01842B8C9328C0A2E3B0E0E3
:101E7000E2E3F0E08081482F8B81282F30E081E081
:101E800090E002C0880F991F2A95E2F7809584237D
:101E90008C93A2E3B0E0E2E3F0E08081482F8C81F4
:101EA000282F30E08B81882F90E0B90102C0660FA7
:101EB000771F8A95E2F7CB01842B8C93198202C09D
:101EC00082E08983898126960FB6F894DEBF0FBE23
:101ED000CDBFCF91DF910895DF93CF9300D000D095
:101EE0000F92CDB7DEB78A836B8381E089838A81C5
:101EF000843008F073C08B81883008F06FC08A810D
:101F0000282F30E03D832C838C819D818130910589
:101F100049F12C813D81223031052CF48C819D8149
:101F2000009761F05DC02C813D812230310571F157
:101F30008C819D8183309105E9F152C0ABE3B0E023
:101F4000EBE3F0E08081482F8B81282F30E081E0A7
:101F500090E0022E02C0880F991F0A94E2F78427AE
:101F60008C933EC0A8E3B0E0E8E3F0E08081482F26
:101F70008B81282F30E081E090E0022E02C0880F94
:101F8000991F0A94E2F784278C932AC0A5E3B0E056
:101F9000E5E3F0E08081482F8B81282F30E081E05D
:101FA00090E0022E02C0880F991F0A94E2F784275E
:101FB0008C9316C0A2E3B0E0E2E3F0E08081482F0A
:101FC0008B81282F30E081E090E0022E02C0880F44
:101FD000991F0A94E2F784278C9302C082E08983D8
:101FE00089810F900F900F900F900F90CF91DF91FC
:101FF0000895DF93CF93CDB7DEB727970FB6F89448
:10200000DEBF0FBECDBF8A836B835D834C8381E0CF
:1020100089838C819D81009709F47CC08A818430FA
:1020200008F075C08B81883008F071C08A81282F34
:1020300030E03F832E834E815F814130510559F15D
:102040008E819F818230910534F42E813F8121154C
:10205000310569F061C04E815F814230510579F1EF
:102060008E819F818330910509F43DC055C0E9E31D
:10207000F0E08081282F30E08B81882F90E0A9014B
:1020800002C0559547958A95E2F7CA018170EC81A7
:10209000FD81808341C0E6E3F0E08081282F30E0BD
:1020A0008B81882F90E0A90102C0559547958A95AC
:1020B000E2F7CA018170EC81FD8180832DC0E3E3EA
:1020C000F0E08081282F30E08B81882F90E0A901FB
:1020D00002C0559547958A95E2F7CA018170EC8157
:1020E000FD81808319C0E0E3F0E08081282F30E09B
:1020F0008B81882F90E0A90102C0559547958A955C
:10210000E2F7CA018170EC81FD81808305C082E025
:10211000898302C083E08983898127960FB6F8946A
:10212000DEBF0FBECDBFCF91DF910895DF93CF9378
:102130000F92CDB7DEB781E08983A6E2B0E0E6E298
:10214000F0E08081887F8C93A6E2B0E0E6E2F0E0E8
:10215000808186608C93A7E2B0E0E7E2F0E08081C6
:10216000807E8C93A7E2B0E0E7E2F0E080818C9380
:10217000A6E2B0E0E6E2F0E080818F7D8C93A0E5FE
:10218000B0E0E0E5F0E080818F718C93A0E5B0E0F5
:10219000E0E5F0E0808180648C93A6E2B0E0E6E2C6
:1021A000F0E08081877F8C93A7E2B0E0E7E2F0E087
:1021B00080818F738C93A7E2B0E0E7E2F0E080814A
:1021C00080648C93A7E2B0E0E7E2F0E08081806277
:1021D0008C9389810F90CF91DF910895DF93CF93F6
:1021E000CDB7DEB7A6E2B0E0E6E2F0E08081806441
:1021F0008C9380E0CF91DF910895DF93CF9300D04F
:102200000F92CDB7DEB79B838A8381E08983E5E2B5
:10221000F0E08081EA81FB81808389810F900F90BB
:102220000F90CF91DF910895DF93CF9300D00F925D
:10223000CDB7DEB79B838A8381E08983E4E2F0E057
:1022400080818295869586958370882F90E0EA81BB
:10225000FB8191838083EA81FB8120813181E5E2EA
:10226000F0E08081882F90E0880F991F880F991FD8
:10227000822B932BEA81FB819183808389810F904C
:102280000F900F90CF91DF910895DF93CF9300D0FF
:1022900000D00F92CDB7DEB79B838A837D836C839A
:1022A00081E089838A819B81009761F08A819B818B
:1022B0009093B5018093B4018C819D819093B70177
:1022C0008093B60189810F900F900F900F900F901F
:1022D000CF91DF910895DF93CF9300D0CDB7DEB7D4
:1022E0008A8381E089838A81803278F4A7E2B0E032
:1022F000E7E2F0E08081807E8C93A7E2B0E0E7E245
:10230000F0E090818A81892B8C9389810F900F90C6
:10231000CF91DF910895DF93CF9300D0CDB7DEB793
:102320008A8381E089838A81883040F5A6E2B0E023
:10233000E6E2F0E080818F7D8C93A0E5B0E0E0E5FF
:10234000F0E080818F718C93A0E5B0E0E0E5F0E0F3
:102350008081282F8A81882F90E0880F991F82958D
:102360009295907F9827807F9827822B8C93A6E266
:10237000B0E0E6E2F0E0808180628C9389810F908A
:102380000F90CF91DF910895DF93CF93CDB7DEB754
:10239000A6E2B0E0E6E2F0E080818F7D8C9380E001
:1023A000CF91DF910895DF93CF93CDB7DEB7E6E20B
:1023B000F0E0808182958F70882F90E0817090701E
:1023C0000097A9F380E0CF91DF910895DF93CF9339
:1023D000CDB7DEB7A6E2B0E0E6E2F0E08081806152
:1023E0008C9380E0CF91DF910895DF93CF930F928C
:1023F000CDB7DEB781E08983A6E2B0E0E6E2F0E0A7
:10240000808180688C9389810F90CF91DF910895AE
:10241000DF93CF930F92CDB7DEB781E08983A6E239
:10242000B0E0E6E2F0E080818F778C9389810F90B5
:10243000CF91DF910895DF93CF930F92CDB7DEB7A1
:1024400081E08983A6E2B0E0E6E2F0E08081886086
:102450008C9389810F90CF91DF910895DF93CF9373
:102460000F92CDB7DEB781E08983A6E2B0E0E6E265
:10247000F0E08081877F8C9389810F90CF91DF91ED
:1024800008951F920F920FB60F9211242F933F932E
:102490004F935F936F937F938F939F93AF93BF936C
:1024A000EF93FF93DF93CF93CDB7DEB78091B40165
:1024B0009091B501009749F0E091B401F091B50118
:1024C0008091B6019091B7010995CF91DF91FF916D
:1024D000EF91BF91AF919F918F917F916F915F919C
:1024E0004F913F912F910F900FBE0F901F90189515
:1024F000DF93CF93CDB7DEB782E060E041E00E948A
:10250000910D82E061E040E00E94910D82E061E087
:1025100041E00E947D0E0E945A0A0E94470985EC04
:1025200094E10E943F0ACF91DF910895DF93CF930A
:10253000CDB7DEB7E9970FB6F894DEBF0FBECDBFBB
:1025400080E090E0A0E0B0E08DAB9EABAFABB8AF69
:1025500080E090E0A0E0B0E089AB9AABABABBCAB65
:1025600082E060E040E00E947D0E80E090E0A0E725
:10257000B1E48DA79EA7AFA7B8AB6DA57EA58FA52B
:1025800098A92BEA3AEA4AEA5EE30E941F02DC01BC
:10259000CB0189A79AA7ABA7BCA769A57AA58BA5EC
:1025A0009CA520E030E040E85FE30E9425048823FA
:1025B0001CF481E088A791C069A57AA58BA59CA58C
:1025C00020E030E04FE753E40E94C50318160CF0FA
:1025D0007BC06DA57EA58FA598A920E030E04AE7D5
:1025E00054E40E941903DC01CB018CA39DA3AEA38C
:1025F000BFA36CA17DA18EA19FA120E030E04AE79E
:1026000053E40E941F02DC01CB0188A399A3AAA373
:10261000BBA368A179A18AA19BA120E030E040E89A
:102620005FE30E94250488232CF481E090E09F8FD3
:102630008E8F3FC068A179A18AA19BA120E03FEFC6
:102640004FE757E40E94C50318164CF56CA17DA115
:102650008EA19FA120E030E040E251E40E941F02E1
:10266000DC01CB01BC01CD010E944900DC01CB01A2
:102670009F8F8E8F0FC089E190E09D8F8C8F8C8D06
:102680009D8D0197F1F79D8F8C8F8E8D9F8D01977A
:102690009F8F8E8F8E8D9F8D009769F724C068A1C4
:1026A00079A18AA19BA10E944900DC01CB019F8FE7
:1026B0008E8F8E8D9F8D9B8F8A8F8A8D9B8D01979C
:1026C000F1F79B8F8A8F0FC069A57AA58BA59CA572
:1026D0000E944900DC01CB0188A788A5898F898DDC
:1026E0008A95F1F7898F82E060E041E00E947D0EDB
:1026F00080E090E0A0E7B1E48D8B9E8BAF8BB88F2C
:102700006D897E898F89988D2BEA3AEA4AEA5EE3E1
:102710000E941F02DC01CB01898B9A8BAB8BBC8B97
:1027200069897A898B899C8920E030E040E85FE301
:102730000E94250488231CF481E0888B91C069895C
:102740007A898B899C8920E030E04FE753E40E942E
:10275000C50318160CF07BC06D897E898F89988D12
:1027600020E030E04AE754E40E941903DC01CB0189
:102770008C879D87AE87BF876C857D858E859F857D
:1027800020E030E04AE753E40E941F02DC01CB0165
:1027900088879987AA87BB87688579858A859B857D
:1027A00020E030E040E85FE30E94250488232CF419
:1027B00081E090E09F838E833FC0688579858A851C
:1027C0009B8520E03FEF4FE757E40E94C5031816B2
:1027D0004CF56C857D858E859F8520E030E040E25C
:1027E00051E40E941F02DC01CB01BC01CD010E941B
:1027F0004900DC01CB019F838E830FC089E190E00B
:102800009D838C838C819D810197F1F79D838C83BF
:102810008E819F8101979F838E838E819F810097F8
:1028200069F724C0688579858A859B850E9449005F
:10283000DC01CB019F838E838E819F819B838A8362
:102840008A819B810197F1F79B838A830FC06989F5
:102850007A898B899C890E944900DC01CB01888B95
:102860008889898389818A95F1F7898382E060E08C
:1028700040E00E947D0E9E01275C3F4F82E061E0B8
:10288000A9010E94F90F89AD882361F408C09E0157
:10289000275C3F4F82E061E0A9010E94F90F89ADFA
:1028A0008823A9F3E2E5F0E010821092B8011092BB
:1028B000B9011092BA011092BB010E94DD0908C053
:1028C0009E01275C3F4F82E061E0A9010E94F90F61
:1028D00089AD8130A9F30E94F009E2E5F0E0808142
:1028E000282F30E040E050E08091B8019091B9018C
:1028F000A091BA01B091BB01BA2FA92F982F8827B8
:10290000820F931FA41FB51FBC01CD010E94A90413
:10291000DC01CB01BC01CD0120E030E040E852E415
:102920000E941F02DC01CB018DAB9EABAFABB8AFF9
:102930006DA97EA98FA998AD24E037EE4CE05DE348
:102940000E941F02DC01CB01BC01CD0120E030E080
:1029500040E050E40E941903DC01CB0189AB9AAB43
:10296000ABABBCAB69A97AA98BA99CA90E94550401
:10297000DC01CB01BC01CD01E9960FB6F894DEBFB6
:102980000FBECDBFCF91DF910895DF93CF93CDB729
:10299000DEB78091B8019091B901A091BA01B091D0
:1029A000BB010196A11DB11D8093B8019093B9019F
:1029B000A093BA01B093BB01CF91DF910895DF934B
:1029C000CF93CDB7DEB727970FB6F894DEBF0FBE13
:1029D000CDBF9F838E8381E08B831A828E819F81FE
:1029E000009709F46BC019825EC08981282F30E0FE
:1029F000C901880F991F280F391F8E819F81FC0103
:102A0000E20FF31F40818981282F30E0C901880F30
:102A1000991F280F391F8E819F81FC01E20FF31F40
:102A20009181842F692F40E00E94910D8C838981D0
:102A3000282F30E0C901880F991F280F391F8E8178
:102A40009F81FC01E20FF31F50818981282F30E024
:102A5000C901880F991F280F391F8E819F81FC01A2
:102A6000E20FF31F41818981282F30E0C901880FCF
:102A7000991F280F391F8E819F81FC01E20FF31FE0
:102A80009281852F642F492F0E947D0E8D838C812A
:102A9000882319F48D81882319F081E08A8309C085
:102AA00089818F5F8983909189018981891708F4D1
:102AB0009CCF8A81882321F41B8202C083E08B8310
:102AC0008B8127960FB6F894DEBF0FBECDBFCF9196
:102AD000DF910895DF93CF9300D000D00F92CDB750
:102AE000DEB79B838A837D836C8381E089838A81BF
:102AF0009B81009791F08C819D81009771F0EA8114
:102B0000FB818081EA81FB8191812C813D81692F4C
:102B1000A9010E94F90F898302C083E0898389811A
:102B20000F900F900F900F900F90CF91DF9108951D
:102B3000DF93CF9300D00F92CDB7DEB781E08983CA
:102B400083E063E040E00E94910D8A8383E063E0CC
:102B500041E00E947D0E8B838A81882321F48B8142
:102B6000882309F4198289810F900F900F90CF91DB
:102B7000DF910895DF93CF9300D00F92CDB7DEB7EA
:102B80009B838A8381E089838A819B81009749F0B6
:102B90002A813B8183E063E0A9010E94F90F8983C8
:102BA00002C083E0898389810F900F900F90CF91AD
:102BB000DF910895DF93CF93CDB7DEB7AB970FB614
:102BC000F894DEBF0FBECDBF81E08BA780E090E020
:102BD000ACE0B2E48FA398A7A9A7BAA76FA178A584
:102BE00089A59AA520E030E04AE753E40E941F023D
:102BF000DC01CB018BA39CA3ADA3BEA36BA17CA1E5
:102C00008DA19EA120E030E040E85FE30E94250412
:102C100088232CF481E090E09AA389A33FC06BA1A4
:102C20007CA18DA19EA120E03FEF4FE757E40E94D9
:102C3000C50318164CF56FA178A589A59AA520E0C3
:102C400030E040E251E40E941F02DC01CB01BC01F4
:102C5000CD010E944900DC01CB019AA389A30FC0DA
:102C600089E190E098A38F8F8F8D98A10197F1F75C
:102C700098A38F8F89A19AA101979AA389A389A16B
:102C80009AA1009769F714C06BA17CA18DA19EA1A8
:102C90000E944900DC01CB019AA389A389A19AA1D2
:102CA0009E8F8D8F8D8D9E8D0197F1F79E8F8D8FCD
:102CB00081E061E041E00E94910D81E062E041E04D
:102CC0000E94910D81E063E041E00E94910D80E05F
:102CD00067E041E00E94910D80E066E041E00E94E3
:102CE000910D80E065E041E00E94910D80E064E09C
:102CF00041E00E94910D81E061E040E00E947D0E84
:102D000080E067E040E00E947D0E80E066E040E009
:102D10000E947D0E80E065E041E00E947D0E80E033
:102D200064E040E00E947D0E81E063E041E00E94AB
:102D30007D0E80E090E0A0E2B1E4898F9A8FAB8FA6
:102D4000BC8F698D7A8D8B8D9C8D20E030E04AE7B9
:102D500053E40E941F02DC01CB018D8B9E8BAF8B55
:102D6000B88F6D897E898F89988D20E030E040E8AA
:102D70005FE30E94250488232CF481E090E09C8B83
:102D80008B8B3FC06D897E898F89988D20E03FEFC6
:102D90004FE757E40E94C50318164CF5698D7A8DEC
:102DA0008B8D9C8D20E030E040E251E40E941F02B8
:102DB000DC01CB01BC01CD010E944900DC01CB014B
:102DC0009C8B8B8B0FC089E190E09A8B898B8989D2
:102DD0009A890197F1F79A8B898B8B899C89019746
:102DE0009C8B8B8B8B899C89009769F714C06D89AC
:102DF0007E898F89988D0E944900DC01CB019C8BD4
:102E00008B8B8B899C89988B8F878F85988901976D
:102E1000F1F7988B8F8781E063E040E00E947D0EA0
:102E200080E090E0A0E2B1E48B879C87AD87BE870D
:102E30006B857C858D859E8520E030E04AE753E4F4
:102E40000E941F02DC01CB018F839887A987BA8774
:102E50006F81788589859A8520E030E040E85FE3DE
:102E60000E94250488232CF481E090E09E838D83CA
:102E70003FC06F81788589859A8520E03FEF4FE7D5
:102E800057E40E94C50318164CF56B857C858D852B
:102E90009E8520E030E040E251E40E941F02DC0108
:102EA000CB01BC01CD010E944900DC01CB019E8316
:102EB0008D830FC089E190E09C838B838B819C8103
:102EC0000197F1F79C838B838D819E8101979E836F
:102ED0008D838D819E81009769F714C06F817885FD
:102EE00089859A850E944900DC01CB019E838D83F0
:102EF0008D819E819A83898389819A810197F1F7D7
:102F00009A83898388E20E94DD1881E061E040E0D5
:102F10000E947D0E8FE00E94DD1881E061E040E0BC
:102F20000E947D0E81E00E94DD1881E061E040E0BA
:102F30000E947D0E86E00E94DD188BA5AB960FB631
:102F4000F894DEBF0FBECDBFCF91DF910895DF9320
:102F5000CF9300D0CDB7DEB78A8381E0898381E04B
:102F600061E041E00E947D0E8A810E94DD18898126
:102F70000F900F90CF91DF910895DF93CF9300D002
:102F8000CDB7DEB78A8381E0898381E061E040E0EC
:102F90000E947D0E8A810E94DD1889810F900F901A
:102FA000CF91DF910895DF93CF9300D00F92CDB7EB
:102FB000DEB79B838A8381E089838A819B81009726
:102FC000B9F010C081E061E041E00E947D0EEA812D
:102FD000FB8120818A819B8101969B838A83822F3A
:102FE0000E94DD18EA81FB818081882359F702C0A5
:102FF00083E0898389810F900F900F90CF91DF91AB
:1030000008950F931F93DF93CF93CDB7DEB76297E9
:103010000FB6F894DEBF0FBECDBF6F87788B898B5C
:103020009A8B81E08A838CE0FE013396DF01982F32
:103030001D929A95E9F719828F859889A989BA898D
:103040000097A105B10541F481E061E041E00E94F3
:103050007D0E80E30E94DD188F859889A989BA8941
:10306000BB230CF046C081E061E041E00E947D0E90
:103070008DE20E94DD188F859889A989BA89B0955B
:10308000A095909581959F4FAF4FBF4F8F87988B9D
:10309000A98BBA8B2EC089818F5F89838981082F84
:1030A00010E08F859889A989BA892AE030E040E04C
:1030B00050E0BC01CD010E943620DC01CB01282F5D
:1030C000205DCE010396FC01E00FF11F20838F8568
:1030D0009889A989BA892AE030E040E050E0BC0133
:1030E000CD010E943620DA01C9018F87988BA98B08
:1030F000BA8B8F859889A989BA890097A105B105EE
:1031000051F614C081E061E041E00E947D0E8981AA
:10311000282F30E0CE010396FC01E20FF31F9081CF
:10312000898181508983892F0E94DD1889818823B4
:1031300049F78A8162960FB6F894DEBF0FBECDBF05
:10314000CF91DF911F910F910895DF93CF9300D01E
:103150000F92CDB7DEB78A836B8381E089838A8142
:10316000882311F18A818330F8F48B818823E1F080
:103170008B818131C8F481E061E040E00E947D0EE6
:103180008A81882F90E00196002496958795079470
:10319000969587950794982F802D982F8B81890F6E
:1031A00081500E94DD1802C082E0898389810F90DE
:1031B0000F900F90CF91DF910895DF93CF93CDB70C
:1031C000DEB7EA970FB6F894DEBF0FBECDBF8AAF69
:1031D00081E089AF81E062E040E00E947D0E81E005
:1031E00063E040E00E947D0E8AAD982F991F9927D9
:1031F000991F80E067E0492F0E947D0E8AAD82957D
:10320000869586958370982F917080E066E0492FAF
:103210000E947D0E8AAD829586958770982F917059
:1032200080E065E0492F0E947D0E8AAD82958F7007
:10323000982F917080E064E0492F0E947D0E81E01C
:1032400063E041E00E947D0E80E090E0A0E2B1E406
:103250008DAB9EABAFABB8AF6DA97EA98FA998AD72
:1032600020E030E04AE753E40E941F02DC01CB017A
:1032700089AB9AABABABBCAB69A97AA98BA99CA96A
:1032800020E030E040E85FE30E94250488232CF42E
:1032900081E090E098AB8FA73FC069A97AA98BA97C
:1032A0009CA920E03FEF4FE757E40E94C5031816A2
:1032B0004CF56DA97EA98FA998AD20E030E040E2E1
:1032C00051E40E941F02DC01CB01BC01CD010E9430
:1032D0004900DC01CB0198AB8FA70FC089E190E0DA
:1032E0009EA78DA78DA59EA50197F1F79EA78DA7F7
:1032F0008FA598A9019798AB8FA78FA598A900973C
:1033000069F714C069A97AA98BA99CA90E944900F0
:10331000DC01CB0198AB8FA78FA598A99CA78BA7A1
:103320008BA59CA50197F1F79CA78BA781E063E093
:1033300040E00E947D0E80E090E0A0E2B1E48FA327
:1033400098A7A9A7BAA76FA178A589A59AA520E0F3
:1033500030E04AE753E40E941F02DC01CB018BA35B
:103360009CA3ADA3BEA36BA17CA18DA19EA120E0D7
:1033700030E040E85FE30E94250488232CF481E0DC
:1033800090E09AA389A33FC06BA17CA18DA19EA1CF
:1033900020E03FEF4FE757E40E94C50318164CF5B5
:1033A0006FA178A589A59AA520E030E040E251E41C
:1033B0000E941F02DC01CB01BC01CD010E9449002B
:1033C000DC01CB019AA389A30FC089E190E098A307
:1033D0008F8F8F8D98A10197F1F798A38F8F89A177
:1033E0009AA101979AA389A389A19AA1009769F745
:1033F00014C06BA17CA18DA19EA10E944900DC019B
:10340000CB019AA389A389A19AA19E8F8D8F8D8DBF
:103410009E8D0197F1F79E8F8D8F8AAD869586954B
:103420008695982F917080E067E0492F0E947D0E6D
:103430008AAD86958695982F917080E066E0492F39
:103440000E947D0E8AAD8695982F917080E065E090
:10345000492F0E947D0E8AAD982F917080E064E024
:10346000492F0E947D0E81E063E041E00E947D0EC5
:1034700080E090E0A0E2B1E4898F9A8FAB8FBC8F9F
:10348000698D7A8D8B8D9C8D20E030E04AE753E486
:103490000E941F02DC01CB018D8B9E8BAF8BB88FFE
:1034A0006D897E898F89988D20E030E040E85FE368
:1034B0000E94250488232CF481E090E09C8B8B8B68
:1034C0003FC06D897E898F89988D20E03FEF4FE75F
:1034D00057E40E94C50318164CF5698D7A8D8B8DC3
:1034E0009C8D20E030E040E251E40E941F02DC01AC
:1034F000CB01BC01CD010E944900DC01CB019C8BBA
:103500008B8B0FC089E190E09A8B898B89899A898E
:103510000197F1F79A8B898B8B899C8901979C8BFA
:103520008B8B8B899C89009769F714C06D897E8984
:103530008F89988D0E944900DC01CB019C8B8B8B7D
:103540008B899C89988B8F878F8598890197F1F754
:10355000988B8F8781E063E040E00E947D0E80E0E1
:1035600090E0A0E2B1E48B879C87AD87BE876B8536
:103570007C858D859E8520E030E04AE753E40E94FB
:103580001F02DC01CB018F839887A987BA876F81DF
:10359000788589859A8520E030E040E85FE30E94E5
:1035A000250488232CF481E090E09E838D833FC026
:1035B0006F81788589859A8520E03FEF4FE757E452
:1035C0000E94C50318164CF56B857C858D859E85FC
:1035D00020E030E040E251E40E941F02DC01CB0118
:1035E000BC01CD010E944900DC01CB019E838D838B
:1035F0000FC089E190E09C838B838B819C81019734
:10360000F1F79C838B838D819E8101979E838D83AF
:103610008D819E81009769F714C06F8178858985B7
:103620009A850E944900DC01CB019E838D838D81A8
:103630009E819A83898389819A810197F1F79A8380
:10364000898389ADEA960FB6F894DEBF0FBECDBF71
:10365000CF91DF910895DF93CF930F92CDB7DEB76F
:1036600081E0898383E062E041E00E94910D83E084
:1036700063E041E00E94910D83E064E041E00E943C
:10368000910D83E065E041E00E94910D83E062E0EE
:1036900041E00E947D0E83E063E041E00E947D0EE8
:1036A00083E064E041E00E947D0E83E065E041E05C
:1036B0000E947D0E81E064E040E00E94910D81E077
:1036C00065E040E00E94910D81E066E040E00E94EC
:1036D000910D81E067E040E00E94910D81E064E09F
:1036E00041E00E947D0E81E065E041E00E947D0E98
:1036F00081E066E041E00E947D0E81E067E041E00C
:103700000E947D0E89810F90CF91DF910895DF9304
:10371000CF93CDB7DEB7EA970FB6F894DEBF0FBEF2
:10372000CDBF9DAB8CAB81E08A8B198A188A81E072
:103730008B8B81E08C8B81E08D8B81E08E8B84E0A4
:103740008F8B85E0888F86E0898F87E08A8F83E082
:103750008B8F83E08C8F83E08D8F83E08E8F82E070
:103760008F8F83E088A384E089A385E08AA380E625
:103770008BA31F863EC18889282F30E0CE014B964F
:10378000FC01E20FF31F40818889282F30E0CE0131
:103790004F96FC01E20FF31F9081842F692F40E0C8
:1037A0000E947D0E198A07C18989282F30E0CE0139
:1037B0004396FC01E20FF31F40818989282F30E0F6
:1037C000CE014796FC01E20FF31F90819E012D5D13
:1037D0003F4F842F692FA9010E94F90F8BA18823E5
:1037E00009F0E6C080E090E0A0E2B1E48B879C871E
:1037F000AD87BE876B857C858D859E8520E030E01A
:103800004AE753E40E941F02DC01CB018F839887B3
:10381000A987BA876F81788589859A8520E030E00D
:1038200040E85FE30E94250488232CF481E090E0C7
:103830009E838D833FC06F81788589859A8520E03E
:103840003FEF4FE757E40E94C50318164CF56B8510
:103850007C858D859E8520E030E040E251E40E9429
:103860001F02DC01CB01BC01CD010E944900DC013B
:10387000CB019E838D830FC089E190E09C838B8375
:103880008B819C810197F1F79C838B838D819E8135
:1038900001979E838D838D819E81009769F714C067
:1038A0006F81788589859A850E944900DC01CB016A
:1038B0009E838D838D819E819A83898389819A815C
:1038C0000197F1F79A8389838989282F30E0CE0107
:1038D0004396FC01E20FF31F40818989282F30E0D5
:1038E000CE014796FC01E20FF31F90819E012D5DF2
:1038F0003F4F842F692FA9010E94F90F8BA18823C4
:1039000009F056C01AC08989282F30E0CE014396AD
:10391000FC01E20FF31F40818989282F30E0CE019E
:103920004796FC01E20FF31F90819E012D5D3F4FF2
:10393000842F692FA9010E94F90F8BA1882319F305
:10394000CE0184969FAB8EABE0E9F1E0F9AFE8AF32
:10395000F0E1FAAFE8ADF9AD008088AD99AD019620
:1039600099AF88AFEEA9FFA900828EA99FA9019601
:103970009FAB8EAB9AAD91509AAFEAADEE2351F763
:103980008989282F30E08889482F50E0220F331F83
:10399000220F331FCE010196820F931F840F951FB4
:1039A000FC01B3968081ECA9FDA9808381E08F871B
:1039B00089898F5F898B8989843008F4F5CE88895D
:1039C000282F30E0CE014B96FC01E20FF31F40811F
:1039D0008889282F30E0CE014F96FC01E20FF31FBB
:1039E0009081842F692F41E00E947D0E88898F5F2E
:1039F000888B8889843008F4BECE8F85882321F493
:103A0000ECA9FDA98FEF80838A89EA960FB6F89416
:103A1000DEBF0FBECDBFCF91DF910895DF93CF936F
:103A2000CDB7DEB70E941707CF91DF910895DF93DE
:103A3000CF93CDB7DEB70E946C078093BC01809115
:103A4000BC01CF91DF910895DF93CF93CDB7DEB75F
:103A5000E2970FB6F894DEBF0FBECDBF18AA1FA61F
:103A60001BA61CA61DA61EA60E94DA150E94080809
:103A700068EE73E080E090E00E9429080E945A0AF4
:103A80008CEE9FE10E9435090E9478120E940E1D63
:103A900082E067E041E00E94910D82E062E041E057
:103AA0000E94910D83E063E041E00E94910D80E06F
:103AB00062E041E00E94910D80E063E041E00E94FD
:103AC000910D0E94B31F0E94A71F0E94D51F81E085
:103AD0000E94BD1780E690E00E94D3170E94171D38
:103AE00088AB88A9833609F0FAC08FA5882309F02E
:103AF0007CC081E08FA781E00E94BD178CE690E03A
:103B00000E94D31780E090E0A0EAB1E48FA398A7C9
:103B1000A9A7BAA76FA178A589A59AA520E030E04A
:103B20004AE753E40E941F02DC01CB018BA39CA354
:103B3000ADA3BEA36BA17CA18DA19EA120E030E02E
:103B400040E85FE30E94250488232CF481E090E0A4
:103B50009AA389A33FC06BA17CA18DA19EA120E067
:103B60003FEF4FE757E40E94C50318164CF56FA1CD
:103B700078A589A59AA520E030E040E251E40E94B2
:103B80001F02DC01CB01BC01CD010E944900DC0118
:103B9000CB019AA389A30FC089E190E098A38F8FEE
:103BA0008F8D98A10197F1F798A38F8F89A19AA182
:103BB00001979AA389A389A19AA1009769F78FC059
:103BC0006BA17CA18DA19EA10E944900DC01CB01CB
:103BD0009AA389A389A19AA19E8F8D8F8D8D9E8D89
:103BE0000197F1F79E8F8D8F7AC01FA681E00E940A
:103BF000BD1780E690E00E94D31780E090E0A0EA35
:103C0000B1E4898F9A8FAB8FBC8F698D7A8D8B8D44
:103C10009C8D20E030E04AE753E40E941F02DC0163
:103C2000CB018D8B9E8BAF8BB88F6D897E898F89F1
:103C3000988D20E030E040E85FE30E94250488236F
:103C40002CF481E090E09C8B8B8B3FC06D897E894A
:103C50008F89988D20E03FEF4FE757E40E94C5031E
:103C600018164CF5698D7A8D8B8D9C8D20E030E097
:103C700040E251E40E941F02DC01CB01BC01CD01F6
:103C80000E944900DC01CB019C8B8B8B0FC089E12A
:103C900090E09A8B898B89899A890197F1F79A8BA1
:103CA000898B8B899C8901979C8B8B8B8B899C89B9
:103CB000009769F714C06D897E898F89988D0E945D
:103CC0004900DC01CB019C8B8B8B8B899C89988B69
:103CD0008F878F8598890197F1F7988B8F878091CF
:103CE000BD01813019F40E949E0808C08091BD0179
:103CF000882321F40E94B1080E94D51F8FA581302E
:103D000009F089C00E949612DC01CB018BA79CA709
:103D1000ADA7BEA780E090E0A0E0B0E48B879C87D1
:103D2000AD87BE876B857C858D859E8520E030E0E4
:103D30004AE753E40E941F02DC01CB018F8398877E
:103D4000A987BA876F81788589859A8520E030E0D8
:103D500040E85FE30E94250488232CF481E090E092
:103D60009E838D833FC06F81788589859A8520E009
:103D70003FEF4FE757E40E94C50318164CF56B85DB
:103D80007C858D859E8520E030E040E251E40E94F4
:103D90001F02DC01CB01BC01CD010E944900DC0106
:103DA000CB019E838D830FC089E190E09C838B8340
:103DB0008B819C810197F1F79C838B838D819E8100
:103DC00001979E838D838D819E81009769F714C032
:103DD0006F81788589859A850E944900DC01CB0135
:103DE0009E838D838D819E819A83898389819A8127
:103DF0000197F1F79A8389838BA59CA5ADA5BEA5F4
:103E000084319105A105B1051CF40E94591F66CEAD
:103E10000E94B31F63CE88A9282F30E03AAB29ABAC
:103E200089A99AA98C36910559F129A93AA92D3663
:103E300031055CF489A99AA98236910581F129A9F5
:103E40003AA92636310531F12FC089A99AA98237BE
:103E50009105D9F029A93AA92737310529F580918B
:103E6000BD01882321F481E08093BD0104C010923C
:103E7000BD010E94D51F0E94B31F0E94A71F2ECE16
:103E80000E946F1F0E94A71F29CE0E94851F0E94BB
:103E9000A71F24CE0E94591F0E94A71F1FCE0E9459
:103EA000B31F0E949B1F1ACE0E94B31F0E94A71F20
:103EB00015CEDF93CF93CDB7DEB782E067E041E068
:103EC0000E947D0E82E062E040E00E947D0E83E071
:103ED00063E040E00E947D0ECF91DF910895DF9373
:103EE000CF93CDB7DEB782E062E041E00E947D0E65
:103EF00082E067E040E00E947D0E83E063E040E006
:103F00000E947D0ECF91DF910895DF93CF93CDB7BF
:103F1000DEB783E063E041E00E947D0E82E067E06F
:103F200040E00E947D0E82E062E040E00E947D0E53
:103F3000CF91DF910895DF93CF93CDB7DEB780E0C7
:103F400063E041E00E947D0ECF91DF910895DF9301
:103F5000CF93CDB7DEB780E063E040E00E947D0EF6
:103F6000CF91DF910895DF93CF93CDB7DEB782E095
:103F700067E040E00E947D0E82E062E040E00E9447
:103F80007D0E83E063E040E00E947D0ECF91DF91E3
:103F90000895DF93CF93CDB7DEB780E062E041E0D4
:103FA0000E947D0ECF91DF910895DF93CF93CDB71F
:103FB000DEB780E062E040E00E947D0ECF91DF91AD
:103FC0000895DF93CF93CDB7DEB780E062E00E9423
:103FD0006C0FCF91DF910895DF93CF93CDB7DEB70C
:103FE0000E94E11FCF91DF910895629FD001739FDE
:103FF000F001829FE00DF11D649FE00DF11D929F85
:10400000F00D839FF00D749FF00D659FF00D9927C3
:10401000729FB00DE11DF91F639FB00DE11DF91FE7
:10402000BD01CF0111240895A1E21A2EAA1BBB1BCA
:10403000FD010DC0AA1FBB1FEE1FFF1FA217B30774
:10404000E407F50720F0A21BB30BE40BF50B661F8A
:10405000771F881F991F1A9469F76095709580954E
:1040600090959B01AC01BD01CF01089597FB092EEE
:1040700005260ED057FD04D0D7DF0AD0001C38F437
:1040800050954095309521953F4F4F4F5F4F089584
:10409000F6F790958095709561957F4F8F4F9F4F64
:1040A00008952F923F924F925F926F927F928F92DC
:1040B0009F92AF92BF92CF92DF92EF92FF920F93B7
:1040C0001F93CF93DF93CDB7DEB7CA1BDB0B0FB6C1
:1040D000F894DEBF0FBECDBF09942A88398848887E
:1040E0005F846E847D848C849B84AA84B984C88414
:1040F000DF80EE80FD800C811B81AA81B981CE0F0B
:10410000D11D0FB6F894DEBF0FBECDBFED010895EF
:04411000F894FFCF51
:104114004352204D6F6465204F4646004352204D64
:104124006F6465204F4E0000000000000000000096
:104134000102020303030304040404040404040545
:10414400050505050505050505050505050505061A
:1041540006060606060606060606060606060606FB
:1041640006060606060606060606060606060607EA
:1041740007070707070707070707070707070707CB
:1041840007070707070707070707070707070707BB
:1041940007070707070707070707070707070707AB
:1041A400070707070707070707070707070707089A
:1041B400080808080808080808080808080808087B
:1041C400080808080808080808080808080808086B
:1041D400080808080808080808080808080808085B
:1041E400080808080808080808080808080808084B
:1041F400080808080808080808080808080808083B
:10420400080808080808080808080808080808082A
:10421400080808080808080808080808080808081A
:10422400080808080808080808080808080808030F
:1042340061250061250243250102030201030501F2
:104244003738392B3435362D3132337863303D2FBE
:00000001FF
